:100000000C943C000C9459000C9459000C945B0027
:100010000C9459000C9459000C9459000C945900FC
:100020000C9459000C9459000C9459000C94E6005F
:100030000C9459000C9459000C9459000C945900DC
:100040000C94B1000C9459000C9459000C94590074
:100050000C9459000C9459000C9459000C945900BC
:100060000C9459000C9459004079243019120278EC
:10007000001808034621060E11241FBECFEFD8E05A
:10008000DEBFCDBF11E0A0E0B1E0EAEDF2E002C0DA
:1000900005900D92A030B107D9F721E0A0E0B1E0C2
:1000A00001C01D92A830B207E1F70E9468010C94CC
:1000B0006B010C9400001F920F920FB60F92112447
:1000C0008F9318990EC080910701811104C081E0BF
:1000D0008093070106C080910701813011F41092CE
:1000E0000701199938C08091070181111EC08091C4
:1000F00002018F5F8093020180910101823049F4F7
:1001000080910201843028F01092010110920201C6
:1001100022C0809102018A30F0F010920201809199
:1001200001018F5F8093010116C0809104018F5FF0
:1001300080930401809104018A3068F010920401D8
:10014000809103018F5F80930301809103018630CA
:1001500010F0109203018F910F900FBE0F901F901F
:1001600018951F920F920FB60F9211242F933F9361
:100170008F939F93EF93FF9318B820910001E22F84
:10018000F0E0EF5FFE4FE081F0E0E859FF4FE491CF
:10019000EBB938B181E090E0022E01C0880F0A94DB
:1001A000EAF7382B38B92F5F263018F42093000176
:1001B00002C010920001FF91EF919F918F913F91AA
:1001C0002F910F900FBE0F901F9018951F920F92B6
:1001D0000FB60F9211248F93809106018F5F809349
:1001E0000601809106018A3008F440C01092060191
:1001F000809105018F5F8093050180910501863014
:10020000A8F110920501809104018F5F8093040191
:10021000809104018A3050F1109204018091030111
:100220008F5F80930301809103018630F8F0109274
:100230000301809102018F5F80930201809101018F
:10024000823049F480910201843028F0109201013B
:10025000109202010BC0809102018A3038F0109296
:100260000201809101018F5F809301018F910F90B6
:100270000FBE0F901F9018958CEF84B983E085B95D
:10028000E8E6F0E0808181608083EBE6F0E0808149
:100290008360808385B5846085BDEEE6F0E0808173
:1002A00081608083E1E8F0E080818C608083EFE60C
:1002B000F0E080818260808380E090EF90938900FD
:1002C0008093880078948FE387B98FEF8AB9089577
:0A02D0000E943C01FFCFF894FFCF1D
:00000001FF
