S0130000436F6E74726F6C6550574D2E73726563D7
S11300000C9434000C9451000C9451000C94510045
S11300100C9451000C9451000C9451000C943F0129
S11300200C9451000C9451000C9451000C94510008
S11300300C9451000C9451000C9451000C945100F8
S11300400C9451000C9451000C9451000C945100E8
S11300500C9451000C9451000C9451000C945100D8
S11300600C9451000C94510011241FBECFEFD8E022
S1130070DEBFCDBF11E0A0E0B1E0E2ECF9E002C0E8
S113008005900D92AA32B107D9F721E0AAE2B1E0B6
S113009001C01D92A233B207E1F70E949F010C94A4
S11300A0DF040C940000611102C0449801C0449A1A
S11300B098B1907F282F22952F70922B98B995E0B4
S11300C09A95F1F70000459A95E09A95F1F70000AA
S11300D0459890EF9A95F1F798B1907F282F2F705B
S11300E0922B98B995E09A95F1F70000459A95E01E
S11300F09A95F1F70000459890EF9A95F1F7611100
S113010008C0843030F48FE39FE10197F1F700C019
S11301100000089561E00E94530080E090E008959B
S1130120449845982FEF89EF90E02150804090400B
S1130130E1F700C0000088B1807F836088B925E0C2
S11301402A95F1F70000459A85E08A95F1F70000B9
S1130150459890EF9A95F1F78FE19EE40197F1F7B6
S113016000C0000095E09A95F1F70000459A25E05B
S11301702A95F1F70000459880EF8A95F1F78FE111
S113018093E00197F1F700C0000095E09A95F1F72C
S11301900000459A25E02A95F1F70000459880EF84
S11301A08A95F1F788B1807F826088B995E09A9545
S11301B0F1F70000459A25E02A95F1F700004598EB
S11301C080EF8A95F1F760E088E20E94530060E0D6
S11301D088E00E94530060E081E00E94530060E0E8
S11301E08CE00E94530060E080E80E945300089570
S11301F00F931F93CF93DF9360E080E80E94530036
S113020000E011E01F930F93C7E1D1E0DF93CF9398
S11302100E941C0260E080EC0E9453001F930F9325
S1130220DF93CF930E941C0260E080E80E94530099
S11302308DB79EB708960FB6F8949EBF0FBE8DBFBC
S1130240DF91CF911F910F910895ECE7F0E0908139
S11302508770907F982B9083EAE7F0E08081806438
S11302608083808186FDFDCF809178009091790014
S1130270089587E00E9425019695879508951F9219
S11302800F920FB60F9211242F933F934F935F93C6
S11302906F937F938F939F93AF93BF93EF93FF934A
S11302A086E00E9425019C01ADECBCEC0E940D028D
S11302B0969587959695879590932B0180932A011F
S11302C0FF91EF91BF91AF919F918F917F916F912A
S11302D05F914F913F912F910F900FBE0F901F9000
S11302E01895ECE7F0E0808180648083EAE7F0E031
S11302F0808187688083219AE0E8F0E080818068CB
S11303008083E1E8F0E080818261808387EC90E083
S11303109093870080938600109289001092880041
S1130320E1EBF0E080818D608083E0E7F0E08081A4
S11303308260808385E08093B30078940895CF939E
S1130340DF93CDB7DEB72E970FB6F894DEBF0FBE9E
S1130350CDBF8FEF87B9FE0131968EE0DF011D928C
S11303608A95E9F782E08C838AE890E09A87898706
S1130370F0932F01E0932E010E9490000E947101DE
S11303800F2EF4E6BF2EF02D0F2EFAE1EF2EF1E042
S1130390FF2EF02D0F2EF8E8CF2ED12CF02D02E2F7
S11303A011E00E94F80080912A0190912B01B89EDF
S11303B09001B99E300D1124A1EAB0EA0E940D0209
S11303C0880F892F881F990B91959F938F93FF9284
S11303D0EF920E941C0280912A0190912B01F60158
S11303E09183808360E080EC0E9453000E94390175
S11303F09F938F931F930F930E941C02FFEF2DEE88
S113040082E0F15020408040E1F700C000000FB6C8
S1130410F894DEBF0FBECDBFC4CFA29FB001B39F7F
S1130420C001A39F700D811D1124911DB29F700DF9
S1130430811D1124911D0895A0E0B0E0E2E2F2E0F4
S11304400C94B804FE01359661917191AF018091CD
S11304502E0190912F010E943002E2E00C94D4040A
S1130460ACE0B0E0E6E3F2E00C94A8047C016B019C
S11304708A01FC0117821682838181FFBDC1CE01EE
S113048001964C01F7019381F60193FD859193FF49
S113049081916F01882309F4ABC1853239F493FD4E
S11304A0859193FF81916F01853229F4B70190E022
S11304B00E941804E7CF512C312C20E02032A0F404
S11304C08B3269F030F4803259F0833269F4206160
S11304D02CC08D3239F0803339F4216026C022607B
S11304E0246023C0286021C027FD27C030ED380FC9
S11304F03A3078F426FF06C0FAE05F9E300D1124EE
S1130500532E13C08AE0389E300D1124332E2062FE
S11305100CC08E3221F426FD6BC1206406C08C36DB
S113052011F4206802C0883641F4F60193FD8591E8
S113053093FF81916F018111C1CF982F9F7D9554B5
S1130540933028F40C5F1F4FFFE3F9830DC083360B
S113055031F0833771F0833509F05BC022C0F801B4
S1130560808189830E5F1F4F44244394512C54018E
S113057015C03801F2E06F0E711CF801A080B18043
S113058026FF03C0652D70E002C06FEF7FEFC50149
S11305902C870E940D042C0183012C852F77222E99
S11305A017C03801F2E06F0E711CF801A080B18011
S11305B026FF03C0652D70E002C06FEF7FEFC50119
S11305C02C870E9402042C012C852068222E830192
S11305D023FC1BC0832D90E048165906B0F4B701E4
S11305E080E290E00E9418043A94F4CFF50127FCCD
S11305F0859127FE81915F01B70190E00E94180464
S113060031103A94F1E04F1A51084114510471F732
S1130610E5C0843611F0893639F5F80127FF07C0A3
S113062060817181828193810C5F1F4F08C060815A
S11306307181882777FD8095982F0E5F1F4F2F7645
S1130640B22E97FF09C090958095709561957F4F64
S11306508F4F9F4F2068B22E2AE030E0A4010E9401
S11306604A04A82EA81844C0853729F42F7EB22E38
S11306702AE030E025C0F22FF97FBF2E8F36C1F07B
S113068018F4883579F0B4C0803719F0883721F030
S1130690AFC02F2F2061B22EB4FE0DC08B2D84600D
S11306A0B82E09C024FF0AC09F2F9660B92E06C039
S11306B028E030E005C020E130E002C020E132E073
S11306C0F801B7FE07C060817181828193810C5F5C
S11306D01F4F06C06081718180E090E00E5F1F4F64
S11306E0A4010E944A04A82EA818FB2DFF77BF2E50
S11306F0B6FE0BC02B2D2E7FA51450F4B4FE0AC0F9
S1130700B2FC08C02B2D2E7E05C07A2C2B2D03C0E5
S11307107A2C01C0752C24FF0DC0FE01EA0DF11DD9
S11307208081803311F4297E09C022FF06C07394AE
S1130730739404C0822F867809F0739423FD13C048
S113074020FF06C05A2C731418F4530C5718732C3A
S1130750731468F4B70180E290E02C870E941804B7
S113076073942C85F5CF731410F4371801C0312C11
S113077024FF12C0B70180E390E02C870E94180484
S11307802C8522FF17C021FF03C088E590E002C03A
S113079088E790E0B7010CC0822F867859F021FDDC
S11307A002C080E201C08BE227FD8DE2B70190E038
S11307B00E941804A51438F4B70180E390E00E9465
S11307C018045A94F7CFAA94F401EA0DF11D80811C
S11307D0B70190E00E941804A110F5CF332009F46A
S11307E051CEB70180E290E00E9418043A94F6CF0B
S11307F0F7018681978102C08FEF9FEF2C96E2E18B
S11308000C94C404FC010590615070400110D8F7A9
S1130810809590958E0F9F1F0895FC016150704044
S113082001900110D8F7809590958E0F9F1F089521
S11308300F931F93CF93DF93182F092FEB018B8115
S113084081FD03C08FEF9FEF20C082FF10C04E8157
S11308505F812C813D81421753077CF4E881F98143
S11308609F012F5F3F4F39832883108306C0E8859B
S1130870F985812F0995892B29F72E813F812F5FD7
S11308803F4F3F832E83812F902FDF91CF911F9174
S11308900F910895FA01AA27283051F1203181F1EE
S11308A0E8946F936E7F6E5F7F4F8F4F9F4FAF4F74
S11308B0B1E03ED0B4E03CD0670F781F891F9A1F87
S11308C0A11D680F791F8A1F911DA11D6A0F711D3B
S11308D0811D911DA11D20D009F468943F912AE047
S11308E0269F11243019305D3193DEF6CF0108952F
S11308F0462F4770405D4193B3E00FD0C9F7F6CF60
S1130900462F4F70405D4A3318F0495D31FD405227
S1130910419302D0A9F7EACFB4E0A69597958795BD
S113092077956795BA95C9F700976105710508959C
S11309309B01AC010A2E0694579547953795279548
S1130940BA95C9F7620F731F841F951FA01D0895E0
S11309502F923F924F925F926F927F928F929F92CB
S1130960AF92BF92CF92DF92EF92FF920F931F93B9
S1130970CF93DF93CDB7DEB7CA1BDB0B0FB6F8946A
S1130980DEBF0FBECDBF09942A88398848885F84AA
S11309906E847D848C849B84AA84B984C884DF801B
S11309A0EE80FD800C811B81AA81B981CE0FD11DFF
S11309B00FB6F894DEBF0FBECDBFED010895F894D5
S10509C0FFCF63
S11309C22020202020202020202020202020202021
S11309D2202020202020002573004D3A256425255F
S10D09E220004D3A25644320000074
S9030000FC
