:100000000C943C000C9459000C9459000C94590029
:100010000C9459000C9459000C9459000C945900FC
:100020000C9459000C9459000C9459000C945900EC
:100030000C94C6000C9459000C9459000C9459006F
:100040000C9459000C9459000C9459000C945900CC
:100050000C9459000C9459000C9459000C945900BC
:100060000C9459000C9459004079243019120278EC
:10007000001808034621060E11241FBECFEFD8E05A
:10008000DEBFCDBF11E0A0E0B1E0E2E4F2E002C0EB
:1000900005900D92A630B107D9F721E0A6E0B1E0B6
:1000A00001C01D92AC30B207E1F70E945B000C94D6
:1000B0001F010C940000CF93DF9300D000D000D03C
:1000C000CDB7DEB786E0E0E0F1E0DE011196019009
:1000D0000D928A95E1F7E0E8F0E08081806480830A
:1000E000E1E8F0E080818C608083EFE6F0E08081E1
:1000F0008460808381E090E0909389008093880001
:1001000078948FE387B98FEF8AB960E021E030E01F
:10011000A0E0862F90E0FC01EA5FFE4FE081F0E076
:10012000E859FF4FE491EBB978B1E1E0F0E0EC0F72
:10013000FD1FE80FF91FA901008002C0440F551FE1
:100140000A94E2F7472B48B9EFE1FEE43197F1F763
:1001500000C0000048B1E1E0F0E0EC0FFD1FE80F47
:10016000F91FC901008002C0880F991F0A94E2F7A5
:100170008095842388B98FE19EE40197F1F700C050
:1001800000006F5F663028F26A2FC3CF1F920F9274
:100190000FB60F9211248F93EF93FF9383B18823AF
:1001A00009F445C0EBE0F1E080818F5F80838081BE
:1001B0008A30E8F110920B01EAE0F1E080818F5F74
:1001C00080838081863098F110920A01E9E0F1E0A5
:1001D00080818F5F808380818A3048F1109209018D
:1001E000E8E0F1E080818F5F808380818630F8F0E5
:1001F00010920801E7E0F1E080818F5F80838091B9
:100200000601823049F480910701843028F0109271
:100210000601109207010BC0809107018A3038F067
:1002200010920701E6E0F1E080818F5F8083FF910B
:10023000EF918F910F900FBE0F901F901895F8942B
:02024000FFCFEE
:06024200000102030405A7
:00000001FF
