S0130000436F6E74726F6C6550574D2E73726563D7
S11300000C9434000C9451000C9451000C94510045
S11300100C9451000C9451000C9451000C9449021E
S11300200C9451000C9451000C9451000C94510008
S11300300C9451000C9451000C943A020C9451000D
S11300400C9451000C9451000C9451000C945100E8
S11300500C9451000C9451000C9451000C945100D8
S11300600C9451000C94510011241FBECFEFD8E022
S1130070DEBFCDBF11E0A0E0B1E0E4E4FCE002C0EB
S113008005900D92A834B107D9F721E0A8E4B1E0B6
S113009001C01D92A935B207E1F70E94D8020C9461
S11300A020060C940000611102C05A9801C05A9AAB
S11300B09BB19F70282F207F922B9BB945E04A95D6
S11300C0F1F700005B9A95E09A95F1F700005B98D0
S11300D040EF4A95F1F72BB1922F9F7040E1849F36
S11300E090011124292B2BB995E09A95F1F7000082
S11300F05B9A45E04A95F1F700005B9890EF9A957A
S1130100F1F7611108C0843030F48FE39FE1019767
S1130110F1F700C00000089561E00E94530080E000
S113012090E008955A985B982FEF89EF90E0215062
S113013080409040E1F700C000008BB18F70806375
S11301408BB925E02A95F1F700005B9A85E08A9542
S1130150F1F700005B9890EF9A95F1F78FE19EE438
S11301600197F1F700C0000095E09A95F1F70000BF
S11301705B9A25E02A95F1F700005B9880EF8A9559
S1130180F1F78FE193E00197F1F700C0000095E0EB
S11301909A95F1F700005B9A25E02A95F1F70000A3
S11301A05B9880EF8A95F1F78BB18F7080628BB981
S11301B095E09A95F1F700005B9A25E02A95F1F70E
S11301C000005B9880EF8A95F1F760E088E20E9476
S11301D0530060E088E00E94530060E081E00E94E8
S11301E0530060E08CE00E94530060E080E80C94CF
S11301F053000F931F93CF93DF9360E080E80E9436
S1130200530000E011E01F930F93C7E1D1E0DF93A7
S1130210CF930E943B0360E080EC0E9453001F9345
S11302200F93DF93CF930E943B038DB79EB708963D
S11302300FB6F8949EBF0FBE8DBF60E080E8DF91DB
S1130240CF911F910F910C945300AF92BF92CF9214
S1130250DF92FF920F931F93CF93DF93A0904A01F5
S1130260B0904B01C0904D01D0904E0120914D01B2
S113027030914E011CE0129FC001139F900D112478
S1130280C4E6D0E0BE010E9427032EE6269FC001EB
S1130290279F900D11246CE070E00E942703062F25
S11302A0F72E0E94F90024E62A9DC0012B9D900D93
S11302B011246CEC70E00E9427037F936F938AE112
S11302C091E09F938F930E943B031C9DC0011D9D51
S11302D0900D1124BE010E9427037F936F9385E242
S11302E091E09F938F930E943B03809149011F9259
S11302F08F938AE291E09F938F930E943B0360E087
S113030080EC0E94530080914D0190914E01209108
S11303104D0130914E01BE010E9427039F938F939C
S1130320C901BE010E9427037F936F938FE291E07E
S11303309F938F930E943B03809152012DB73EB748
S11303402E5E3F4F0FB6F8943EBF0FBE2DBF8823DD
S113035021F081E290E00E945103809152018230A9
S113036020F081E290E00E945103FF920F9389E311
S113037091E09F938F930E943B03809151010F90D2
S11303800F900F900F90882371F0809151011F926C
S11303908F9380E491E09F938F930E943B030F908F
S11303A00F900F900F90DF91CF911F910F91FF90BD
S11303B0DF90CF90BF90AF90089590917C00907F94
S11303C0892B80937C0080917A00806480937A00EA
S11303D080917A0086FDFCCF80917800909179001D
S11303E00895CF93DF9310924801C0E0D0E080914C
S11303F04801843698F480E00E94DD019695879543
S1130400C80FD91F8FE193E00197F1F700C00000F6
S1130410809148018F5F80934801E9CFCE0168EC59
S113042070E00E94270370934E0160934D01809108
S11304304D0190914E01499721F410924E01109272
S11304404D01DF91CF91089580914C0181110C945D
S1130450F101089580914C01882359F086E00E94AF
S1130460DD0165E070E00E94270370934B01609307
S11304704A0108951F920F920FB60F9211248F9381
S113048081E080934C018F910F900FBE0F901F90CD
S113049018951F920F920FB60F9211242F938F93DA
S11304A09F9380914F019091500101969093500138
S11304B080934F0180914F0190915001853E91406E
S11304C0B9F580914901882319F08130F9F02CC0E5
S11304D080914D0190914E018536910550F08091A7
S11304E05101811106C0809152018F5F80935201A6
S11304F002C010925201809152018330A8F01092F0
S113050052018AE08093510181E00CC09091510125
S1130510911103C01092490107C09091510191506B
S113052090935101809349011092500110924F0110
S11305309F918F912F910F900FBE0F901F90189540
S1130540ECE7F0E0808180648083EAE7F0E080817A
S113055087688083219AE0E8F0E080818068808366
S1130560E1E8F0E080818261808387EC90E0909301
S1130570870080938600109289001092880085B5C8
S11305808D6085BDEEE6F0E080818260808381E04D
S113059087BDE1EBF0E080818D608083E0E7F0E0EF
S11305A08081826080838FEF8093B3007894089574
S11305B0CF93DF93CDB7DEB72E970FB6F894DEBF97
S11305C00FBECDBF8FEF8AB9FE0131968EE0DF01F9
S11305D01D928A95E9F782E08C838CE890E09A87F3
S11305E08987F0935601E09355010E9492000E947E
S11305F0A00280914901882359F08130E1F41092DE
S113060080000E9424020E942A0210924C0113C00E
S1130610809180008068809380000E9424020E9460
S11306202A0210924C0180914A0190914B019093BF
S11306308900809388000E942501BFEF2DEE82E09F
S1130640B15020408040E1F700C00000D2CFAA1B87
S1130650BB1B51E107C0AA1FBB1FA617B70710F0A9
S1130660A61BB70B881F991F5A95A9F780959095DB
S1130670BC01CD010895A0E0B0E0E1E4F3E00C9406
S1130680F905AE014B5F5F4FFA0161917191AF01C2
S113069080915501909156010E945803E2E00C9418
S11306A0150660915501709156010E944F050895F9
S11306B0ABE0B0E0EEE5F3E00C94E9056C017B01FE
S11306C08A01FC0117821682838181FFCCC1CE018D
S11306D001963C01F6019381F70193FD859193FF07
S11306E081917F01882309F4BAC1853239F493FDDD
S11306F0859193FF81917F01853229F4B60190E0C1
S11307000E944F05E7CF912C212C312CFFE1F315EA
S1130710D8F08B3279F038F4803279F08332A1F456
S1130720232D20611DC08D3261F0803369F4232DA7
S1130730216016C0832D8260382EE32DE4603E2EA6
S11307402AC0F32DF8601DC037FC2DC020ED280F02
S11307502A3040F08E32B9F436FC81C1232D206456
S1130760322E19C036FE06C08AE0989E200D112450
S1130770922E11C0EAE02E9E200D1124222EF32D7C
S1130780F0623F2E08C08C3621F4832D8068382E09
S113079002C0883641F4F70193FD859193FF81915E
S11307A07F018111B3CF982F9F7D9554933028F406
S11307B00C5F1F4F9FE399830DC0833631F083375D
S11307C071F0833509F059C021C0F8018081898313
S11307D00E5F1F4F88248394912C530113C028016A
S11307E0F2E04F0E511CF801A080B18036FE03C028
S11307F0692D70E002C06FEF7FEFC5010E944405D0
S11308004C018201F32DFF773F2E16C0280122E010
S1130810420E511CF801A080B18036FE03C0692D40
S113082070E002C06FEF7FEFC5010E9439054C01F3
S1130830F32DF0683F2E820133FC1BC0822D90E023
S113084088169906B0F4B60180E290E00E944F0544
S11308502A94F4CFF50137FC859137FE81915F012D
S1130860B60190E00E944F0521102A9421E0821ADB
S113087091088114910471F7E8C0843611F0893627
S113088041F5F80137FE07C060817181828193814F
S11308900C5F1F4F08C060817181072E000C880B0C
S11308A0990B0E5F1F4FF32DFF763F2E97FF09C064
S11308B090958095709561957F4F8F4F9F4FF0680D
S11308C03F2E2AE030E0A3010E948B05882E861873
S11308D045C0853731F4232D2F7EB22E2AE030E037
S11308E025C0932D997FB92E8F36C1F018F4883521
S11308F079F0B5C0803719F0883721F0B0C0E92FFE
S1130900E061BE2EB4FE0DC0FB2DF460BF2E09C005
S113091034FE0AC0292F2660B22E06C028E030E03B
S113092005C020E130E002C020E132E0F801B7FE6A
S113093007C060817181828193810C5F1F4F06C063
S11309406081718180E090E00E5F1F4FA3010E94DF
S11309508B05882E8618FB2DFF773F2E36FE0DC0A3
S1130960232D2E7FA22E891458F434FE0BC032FCA2
S113097009C0832D8E7EA82E05C0B82CA32C03C0DD
S1130980B82C01C0B92CA4FE0FC0FE01E80DF11D66
S11309908081803321F49A2D997EA92E09C0A2FE6C
S11309A006C0B394B39404C08A2D867809F0B39436
S11309B0A3FC11C0A0FE06C0B21488F4280C922C2B
S11309C09B180EC0B21460F4B60180E290E00E945D
S11309D04F05B394F7CFB21418F42B1802C0982C17
S11309E0212CA4FE10C0B60180E390E00E944F05C4
S11309F0A2FE17C0A1FC03C088E790E002C088E50E
S1130A0090E0B6010CC08A2D867859F0A1FE02C090
S1130A108BE201C080E2A7FC8DE2B60190E00E9467
S1130A204F05891438F4B60180E390E00E944F0525
S1130A309A94F7CF8A94F301E80DF11D8081B601F1
S1130A4090E00E944F058110F5CF222009F442CE98
S1130A50B60180E290E00E944F052A94F6CFF60199
S1130A608681978102C08FEF9FEF2B96E2E10C9471
S1130A700506FC010590615070400110D8F780957F
S1130A8090958E0F9F1F0895FC0161507040019056
S1130A900110D8F7809590958E0F9F1F08950F939E
S1130AA01F93CF93DF93FB01238121FD03C08FEFBD
S1130AB09FEF2CC022FF16C04681578124813581C7
S1130AC04217530744F4A081B1819D012F5F3F4F2A
S1130AD0318320838C93268137812F5F3F4F378367
S1130AE0268314C08B01EC01FB010084F185E02D09
S1130AF00995892BE1F6D80116968D919C9117974B
S1130B00019617969C938E931697CE01DF91CF9101
S1130B101F910F910895FA01AA27283051F120312D
S1130B2081F1E8946F936E7F6E5F7F4F8F4F9F4F7D
S1130B30AF4FB1E03ED0B4E03CD0670F781F891FBF
S1130B409A1FA11D680F791F8A1F911DA11D6A0F8D
S1130B50711D811D911DA11D20D009F468943F9140
S1130B602AE0269F11243019305D3193DEF6CF013F
S1130B700895462F4770405D4193B3E00FD0C9F705
S1130B80F6CF462F4F70405D4A3318F0495D31FD72
S1130B904052419302D0A9F7EACFB4E0A6959795C5
S1130BA0879577956795BA95C9F70097610571059B
S1130BB008959B01AC010A2E0694579547953795E5
S1130BC02795BA95C9F7620F731F841F951FA01D3F
S1130BD008952F923F924F925F926F927F928F92DD
S1130BE09F92AF92BF92CF92DF92EF92FF920F93B8
S1130BF01F93CF93DF93CDB7DEB7CA1BDB0B0FB6C2
S1130C00F894DEBF0FBECDBF09942A88398848887E
S1130C105F846E847D848C849B84AA84B984C88414
S1130C20DF80EE80FD800C811B81AA81B981CE0F0B
S1130C30D11D0FB6F894DEBF0FBECDBFED010895F0
S1070C40F894FFCF52
S1130C44202020202020202020202020202020209C
S1130C5420202020202000257300445554593A258F
S1130C646425252000256456200025646D73002521
S1130C74642E252E303264410020256452504D00E8
S10B0C84202150256421000029
S9030000FC
