S01800005465636C61646F4D617472696369616C2E73726563BA
S11300000C943A000C9457000C9457000C9457002D
S11300100C9457000C9457000C9457000C94570000
S11300200C9457000C9457000C9457000C945700F0
S11300300C9457000C9457000C9457000C945700E0
S11300400C9457000C9457000C9457000C945700D0
S11300500C9457000C9457000C9457000C945700C0
S11300600C9457000C9457003132333435363738FA
S11300703945304511241FBECFEFD8E0DEBFCDBFD8
S113008011E0A0E0B1E0EAE3F9E002C005900D92CE
S1130090AE30B107D9F721E0AEE0B1E001C01D9266
S11300A0A931B207E1F70E9403010C949B040C945C
S11300B00000611102C05A9801C05A9A2BB1982FBE
S11300C0907F2F70922B9BB945E04A95F1F7000081
S11300D05B9A95E09A95F1F700005B9840EF4A959A
S11300E0F1F79BB140E1849F900111249F70922B02
S11300F09BB995E09A95F1F700005B9A45E04A9523
S1130100F1F700005B9890EF9A95F1F7611108C040
S1130110843030F48FE39FE10197F1F700C00000D1
S1130120089561E00E94590080E090E008955A9893
S11301305B982FEF89EF90E0215080409040E1F7E9
S113014000C000008BB18F7080638BB925E02A95C5
S1130150F1F700005B9A85E08A95F1F700005B985F
S113016090EF9A95F1F78FE19EE40197F1F700C0C3
S1130170000095E09A95F1F700005B9A25E02A9536
S1130180F1F700005B9880EF8A95F1F78FE193E037
S11301900197F1F700C0000095E09A95F1F700008F
S11301A05B9A25E02A95F1F700005B9880EF8A9529
S11301B0F1F78BB18F7080628BB995E09A95F1F766
S11301C000005B9A25E02A95F1F700005B9880EF28
S11301D08A95F1F760E088E20E94590060E088E0C7
S11301E00E94590060E081E00E94590060E08CE0C8
S11301F00E94590060E080E80C94590080EE87B9B1
S11302008FEF84B90895CF93DF93CDB7DEB72E97E0
S11302100FB6F894DEBF0FBECDBF8FEF8AB9FE01D3
S113022031968EE0DF011D928A95E9F782E08C8396
S113023081E990E09A878987F0931601E09315018C
S11302400E9497000E94FE0001E011E049E0E42EC4
S113025041E0F42ECC24C394D12CBB24B39460E8A5
S1130260A62E10921001809110018330D0F760E027
S113027084EC0E945900809112011F928F931F9366
S11302800F93FF92EF920E94D1018091000160E0F0
S11302900E945900809100010F900F900F900F90D1
S11302A00F900F90843C10F0A092000180911201F5
S11302B0813059F025B180911001A60102C0440F8C
S11302C0551F8A95E2F7242B25B9109211018091CC
S11302D01101843008F04EC080911201882319F076
S11302E0813071F141C086B12091110190E002C0CA
S11302F0959587952A95E2F780FF36C0B092120152
S11303008091110180930F018091100180930E015F
S1130310809111012091100190E0FC01EE0FFF1F6C
S1130320E80FF91FE20FF11DE859FF4F849190E0A7
S11303300E94E501809100018F5F8093000114C049
S113034090910E018091100198130CC090910F01AF
S113035080911101981306C086B180911101109209
S1130360120102C0B0921201809111018F5F80933B
S11303701101ADCF80911201813069F025B18091D6
S11303801001D60102C0AA0FBB1F8A95E2F7CD0166
S11303908095822385B9809110018F5F809310012D
S11303A062CFA0E0B0E0E7EDF1E00C947404FE014C
S11303B0359661917191AF0180911501909116016B
S11303C00E94EC01E2E00C9490046091150170919C
S11303D016010E94D4030895ACE0B0E0E2EFF1E02E
S11303E00C9464047C016B018A01FC01178216825F
S11303F0838181FFBDC1CE0101964C01F701938138
S1130400F60193FD859193FF81916F01882309F48F
S1130410ABC1853239F493FD859193FF81916F01CE
S1130420853229F4B70190E00E94D403E7CF512C20
S1130430312C20E02032A0F48B3269F030F4803289
S113044059F0833269F420612CC08D3239F0803345
S113045039F4216026C02260246023C0286021C0B2
S113046027FD27C030ED380F3A3078F426FF06C058
S1130470FAE05F9E300D1124532E13C08AE0389E9B
S1130480300D1124332E20620CC08E3221F426FD4F
S11304906BC1206406C08C3611F4206802C0883613
S11304A041F4F60193FD859193FF81916F018111D0
S11304B0C1CF982F9F7D9554933028F40C5F1F4F24
S11304C0FFE3F9830DC0833631F0833771F0833550
S11304D009F05BC022C0F801808189830E5F1F4F41
S11304E044244394512C540115C03801F2E06F0E9A
S11304F0711CF801A080B18026FF03C0652D70E057
S113050002C06FEF7FEFC5012C870E94C9032C0145
S113051083012C852F77222E17C03801F2E06F0E4D
S1130520711CF801A080B18026FF03C0652D70E026
S113053002C06FEF7FEFC5012C870E94BE032C0120
S11305402C852068222E830123FC1BC0832D90E080
S113055048165906B0F4B70180E290E00E94D40333
S11305603A94F4CFF50127FC859127FE81915F0130
S1130570B70190E00E94D40331103A94F1E04F1A8D
S113058051084114510471F7E5C0843611F08936DD
S113059039F5F80127FF07C0608171818281938159
S11305A00C5F1F4F08C060817181882777FD80959B
S11305B0982F0E5F1F4F2F76B22E97FF09C090958C
S11305C08095709561957F4F8F4F9F4F2068B22E15
S11305D02AE030E0A4010E940604A82EA81844C012
S11305E0853729F42F7EB22E2AE030E025C0F22F81
S11305F0F97FBF2E8F36C1F018F4883579F0B4C076
S1130600803719F0883721F0AFC02F2F2061B22E28
S1130610B4FE0DC08B2D8460B82E09C024FF0AC01F
S11306209F2F9660B92E06C028E030E005C020E177
S113063030E002C020E132E0F801B7FE07C060817B
S11306407181828193810C5F1F4F06C0608171812B
S113065080E090E00E5F1F4FA4010E940604A82EC4
S1130660A818FB2DFF77BF2EB6FE0BC02B2D2E7FB7
S1130670A51450F4B4FE0AC0B2FC08C02B2D2E7E83
S113068005C07A2C2B2D03C07A2C01C0752C24FFB5
S11306900DC0FE01EA0DF11D8081803311F4297E25
S11306A009C022FF06C07394739404C0822F867815
S11306B009F0739423FD13C020FF06C05A2C731451
S11306C018F4530C5718732C731468F4B70180E2B0
S11306D090E02C870E94D40373942C85F5CF731477
S11306E010F4371801C0312C24FF12C0B70180E385
S11306F090E02C870E94D4032C8522FF17C021FF91
S113070003C088E590E002C088E790E0B7010CC020
S1130710822F867859F021FD02C080E201C08BE26D
S113072027FD8DE2B70190E00E94D403A51438F4AC
S1130730B70180E390E00E94D4035A94F7CFAA94BF
S1130740F401EA0DF11D8081B70190E00E94D40309
S1130750A110F5CF332009F451CEB70180E290E027
S11307600E94D4033A94F6CFF7018681978102C0A0
S11307708FEF9FEF2C96E2E10C948004FC0105902E
S1130780615070400110D8F7809590958E0F9F1F8F
S11307900895FC016150704001900110D8F78095D4
S11307A090958E0F9F1F08950F931F93CF93DF9300
S11307B0182F092FEB018B8181FD03C08FEF9FEF71
S11307C020C082FF10C04E815F812C813D81421781
S11307D053077CF4E881F9819F012F5F3F4F3983F0
S11307E02883108306C0E885F985812F0995892B14
S11307F029F72E813F812F5F3F4F3F832E83812F27
S1130800902FDF91CF911F910F910895FA01AA279C
S1130810283051F1203181F1E8946F936E7F6E5F3F
S11308207F4F8F4F9F4FAF4FB1E03ED0B4E03CD0ED
S1130830670F781F891F9A1FA11D680F791F8A1FD0
S1130840911DA11D6A0F711D811D911DA11D20D037
S113085009F468943F912AE0269F11243019305DF1
S11308603193DEF6CF010895462F4770405D4193E2
S1130870B3E00FD0C9F7F6CF462F4F70405D4A332F
S113088018F0495D31FD4052419302D0A9F7EACFF7
S1130890B4E0A6959795879577956795BA95C9F726
S11308A000976105710508959B01AC010A2E069419
S11308B05795479537952795BA95C9F7620F731FD2
S11308C0841F951FA01D08952F923F924F925F920F
S11308D06F927F928F929F92AF92BF92CF92DF924C
S11308E0EF92FF920F931F93CF93DF93CDB7DEB7B1
S11308F0CA1BDB0B0FB6F894DEBF0FBECDBF099445
S11309002A88398848885F846E847D848C849B849B
S1130910AA84B984C884DF80EE80FD800C811B81A9
S1130920AA81B981CE0FD11D0FB6F894DEBF0FBED8
S10D0930CDBFED010895F894FFCF48
S111093A8045737461646F3A00257325640070
S9030000FC
