S01600004672657175656E63696D6574726F2E7372656345
S11300000C943C000C944E000C944E000C944E0046
S11300100C944E000C944E000C944E000C944E0024
S11300200C944E000C944E000C94E1000C94A3002C
S11300300C944E000C944E000C944E000C944E0004
S11300400C946E000C944E000C944E000C944E00D4
S11300500C944E000C944E000C944E000C944E00E4
S11300600C944E000C944E004079243019120278FE
S1130070001808034621060E11241FBECFEFD8E056
S1130080DEBFCDBF21E0A0E0B1E001C01D92AE30E3
S1130090B207E1F70E9450000C9430010C94000068
S11300A085B5846085BD80916E00816080936E000B
S11300B0809181008C608093810080916F008262C6
S11300C080936F0083E294EF90938900809388007B
S11300D08FE387B98FEF8AB97894FFCF1F920F927D
S11300E00FB60F9211242F933F938F939F93EF9307
S11300F0FF9318B820910001E22FF0E0EF5FFE4F6C
S1130100E081F0E0E859FF4FE491EBB938B181E0C8
S113011090E0022E01C0880F0A94EAF7382B38B910
S11301202F5F273018F42093000102C010920001C1
S1130130FF91EF919F918F913F912F910F900FBE5F
S11301400F901F9018951F920F920FB60F921124C3
S11301508F93AF93BF93EF93FF9310920D01809110
S11301600D01863090F4E0910D01F0E0A0910D01B5
S1130170B0E0A95FBE4F8C91EF5FFE4F808380910A
S11301800D018F5F80930D01EACF10920D018091D4
S11301900D01863060F4E0910D01F0E0E95FFE4F5F
S11301A0108280910D018F5F80930D01F0CFFF913C
S11301B0EF91BF91AF918F910F900FBE0F901F9051
S11301C018951F920F920FB60F9211248F9380915E
S11301D00C018F5F80930C0180910C018A30D0F167
S11301E010920C0180910B018F5F80930B01809121
S11301F00B018A3078F110920B0180910A018F5F14
S113020080930A0180910A018A3020F110920A0138
S1130210809109018F5F80930901809109018A30DF
S1130220C8F010920901809108018F5F8093080142
S1130230809108018A3038F01092080180910701FA
S11302408F5F80930701809107018A3018F08EE058
S1130250809307018F910F900FBE0F901F901895F8
S1070260F894FFCF3C
S9030000FC
