:100000000C9434000C9451000C9451000C94510049
:100010000C9451000C9451000C9451000C9451001C
:100020000C9451000C9451000C9436010C94F8007F
:100030000C9451000C9451000C9451000C945100FC
:100040000C9451000C9451000C9451000C945100EC
:100050000C9451000C9451000C9451000C945100DC
:100060000C9451000C94510011241FBECFEFD8E026
:10007000DEBFCDBF11E0A0E0B1E0ECEDF9E002C0E1
:1000800005900D92A830B107D9F721E0A8E0B1E0C2
:1000900001C01D92AB31B207E1F70E9496010C94AA
:1000A000EC040C940000611102C05A9801C05A9AE5
:1000B0002BB1982F907F2F70922B9BB945E04A95DA
:1000C000F1F700005B9A95E09A95F1F700005B98D4
:1000D00040EF4A95F1F79BB140E1849F90011124D4
:1000E0009F70922B9BB995E09A95F1F700005B9A6F
:1000F00045E04A95F1F700005B9890EF9A95F1F78B
:10010000611108C0843030F48FE39FE10197F1F76B
:1001100000C00000089561E00E94530080E090E07C
:1001200008955A985B982FEF89EF90E02150804016
:100130009040E1F700C000008BB18F7080638BB9F5
:1001400025E02A95F1F700005B9A85E08A95F1F7A2
:1001500000005B9890EF9A95F1F78FE19EE401978C
:10016000F1F700C0000095E09A95F1F700005B9A66
:1001700025E02A95F1F700005B9880EF8A95F1F76A
:100180008FE193E00197F1F700C0000095E09A95A8
:10019000F1F700005B9A25E02A95F1F700005B98E3
:1001A00080EF8A95F1F78BB18F7080628BB995E003
:1001B0009A95F1F700005B9A25E02A95F1F7000087
:1001C0005B9880EF8A95F1F760E088E20E94530027
:1001D00060E088E00E94530060E081E00E945300EC
:1001E00060E08CE00E94530060E080E80C945300D3
:1001F0001F920F920FB60F9211248F93AF93BF935C
:10020000EF93FF931092080180910801863090F4DB
:10021000E0910801F0E0A0910801B0E0A15FBE4FBD
:100220008C91E75FFE4F8083809108018F5F809300
:100230000801EACF1092080180910801863060F42D
:10024000E0910801F0E0E15FFE4F1082809108012B
:100250008F5F80930801F0CFFF91EF91BF91AF9135
:100260008F910F900FBE0F901F9018951F920F92B5
:100270000FB60F9211248F93809114018F5F80939A
:100280001401809114018A30C8F1109214018091F8
:1002900013018F5F80931301809113018A3070F1F5
:1002A00010921301809112018F5F8093120180914F
:1002B00012018A3018F110921201809111018F5FA2
:1002C00080931101809111018A30C0F010921101C8
:1002D000809110018F5F80931001809110018A300E
:1002E00068F080910F018F5F80930F0110921001D1
:1002F00080910F018A3010F010920F018F910F90B2
:100300000FBE0F901F901895E1E8F0E080818C609F
:100310008083EFE6F0E080818262808383E294EF65
:10032000909389008093880078940895CF93DF9309
:10033000CDB7DEB72E970FB6F894DEBF0FBECDBF98
:100340008FEF8AB9FE0131968EE0DF011D928A950A
:10035000E9F782E08C838BE890E09A878987F093B5
:100360001801E09317010E9491000E94840100E0AF
:1003700011E085E0E82E81E0F82E90911001809147
:100380000F011F929F931F928F931F930F930E94B1
:10039000220290911201809111011F929F931F924E
:1003A0008F931F930F930E942202909114018091CA
:1003B00013011F929F931F928F931F930F930E947D
:1003C00022028AE090E00E94360290910A01809118
:1003D00009011F929F931F928F931F930F930E9467
:1003E000220290910C0180910B011F929F931F920A
:1003F0008F931F930F930E94220290910E01809180
:100400000D011F929F931F928F931F930F930E9432
:1004100022020FB6F894DEBF0FBECDBFFF92EF925F
:100420000E9422029FEFADEEB2E09150A040B0409A
:10043000E1F700C0000060E080E80E9453000F90E8
:100440000F909BCFA0E0B0E0E8E2F2E00C94C5048E
:10045000FE01359661917191AF01809117019091E4
:1004600018010E943D02E2E00C94E1046091170142
:10047000709118010E9425040895ACE0B0E0E3E417
:10048000F2E00C94B5047C016B018A01FC01178237
:100490001682838181FFBDC1CE0101964C01F70117
:1004A0009381F60193FD859193FF81916F018823DC
:1004B00009F4ABC1853239F493FD859193FF8191A5
:1004C0006F01853229F4B70190E00E942504E7CF3F
:1004D000512C312C20E02032A0F48B3269F030F422
:1004E000803259F0833269F420612CC08D3239F0AA
:1004F000803339F4216026C02260246023C0286044
:1005000021C027FD27C030ED380F3A3078F426FFA0
:1005100006C0FAE05F9E300D1124532E13C08AE00E
:10052000389E300D1124332E20620CC08E3221F4FF
:1005300026FD6BC1206406C08C3611F4206802C011
:10054000883641F4F60193FD859193FF81916F0107
:100550008111C1CF982F9F7D9554933028F40C5F63
:100560001F4FFFE3F9830DC0833631F0833771F0FD
:10057000833509F05BC022C0F801808189830E5F5A
:100580001F4F44244394512C540115C03801F2E00C
:100590006F0E711CF801A080B18026FF03C0652D8D
:1005A00070E002C06FEF7FEFC5012C870E941A0434
:1005B0002C0183012C852F77222E17C03801F2E001
:1005C0006F0E711CF801A080B18026FF03C0652D5D
:1005D00070E002C06FEF7FEFC5012C870E940F040F
:1005E0002C012C852068222E830123FC1BC0832D27
:1005F00090E048165906B0F4B70180E290E00E94FE
:1006000025043A94F4CFF50127FC859127FE8191CA
:100610005F01B70190E00E94250431103A94F1E0A7
:100620004F1A51084114510471F7E5C0843611F096
:10063000893639F5F80127FF07C060817181828111
:1006400093810C5F1F4F08C060817181882777FDFF
:100650008095982F0E5F1F4F2F76B22E97FF09C0FF
:1006600090958095709561957F4F8F4F9F4F206833
:10067000B22E2AE030E0A4010E945704A82EA81848
:1006800044C0853729F42F7EB22E2AE030E025C001
:10069000F22FF97FBF2E8F36C1F018F4883579F02C
:1006A000B4C0803719F0883721F0AFC02F2F2061F8
:1006B000B22EB4FE0DC08B2D8460B82E09C024FF6D
:1006C0000AC09F2F9660B92E06C028E030E005C012
:1006D00020E130E002C020E132E0F801B7FE07C0BF
:1006E00060817181828193810C5F1F4F06C06081A0
:1006F000718180E090E00E5F1F4FA4010E945704BB
:10070000A82EA818FB2DFF77BF2EB6FE0BC02B2DF1
:100710002E7FA51450F4B4FE0AC0B2FC08C02B2DE5
:100720002E7E05C07A2C2B2D03C07A2C01C0752C8F
:1007300024FF0DC0FE01EA0DF11D8081803311F40C
:10074000297E09C022FF06C07394739404C0822FCF
:10075000867809F0739423FD13C020FF06C05A2C3D
:10076000731418F4530C5718732C731468F4B701EE
:1007700080E290E02C870E94250473942C85F5CFAD
:10078000731410F4371801C0312C24FF12C0B701C4
:1007900080E390E02C870E9425042C8522FF17C05F
:1007A00021FF03C088E590E002C088E790E0B70130
:1007B0000CC0822F867859F021FD02C080E201C072
:1007C0008BE227FD8DE2B70190E00E942504A5147D
:1007D00038F4B70180E390E00E9425045A94F7CFE3
:1007E000AA94F401EA0DF11D8081B70190E00E9406
:1007F0002504A110F5CF332009F451CEB70180E2D2
:1008000090E00E9425043A94F6CFF7018681978103
:1008100002C08FEF9FEF2C96E2E10C94D104FC0113
:100820000590615070400110D8F7809590958E0F1B
:100830009F1F0895FC016150704001900110D8F78E
:10084000809590958E0F9F1F08950F931F93CF93C0
:10085000DF93182F092FEB018B8181FD03C08FEFF0
:100860009FEF20C082FF10C04E815F812C813D81AF
:10087000421753077CF4E881F9819F012F5F3F4FB6
:1008800039832883108306C0E885F985812F09956F
:10089000892B29F72E813F812F5F3F4F3F832E8386
:1008A000812F902FDF91CF911F910F910895FA0121
:1008B000AA27283051F1203181F1E8946F936E7F9F
:1008C0006E5F7F4F8F4F9F4FAF4FB1E03ED0B4E090
:1008D0003CD0670F781F891F9A1FA11D680F791FD1
:1008E0008A1F911DA11D6A0F711D811D911DA11DE2
:1008F00020D009F468943F912AE0269F11243019F2
:10090000305D3193DEF6CF010895462F4770405D8C
:100910004193B3E00FD0C9F7F6CF462F4F70405D3B
:100920004A3318F0495D31FD4052419302D0A9F796
:10093000EACFB4E0A6959795879577956795BA9590
:10094000C9F700976105710508959B01AC010A2E56
:1009500006945795479537952795BA95C9F7620F2D
:10096000731F841F951FA01D08952F923F924F92D1
:100970005F926F927F928F929F92AF92BF92CF922F
:10098000DF92EF92FF920F931F93CF93DF93CDB738
:10099000DEB7CA1BDB0B0FB6F894DEBF0FBECDBFB0
:1009A00009942A88398848885F846E847D848C8481
:1009B0009B84AA84B984C884DF80EE80FD800C818A
:1009C0001B81AA81B981CE0FD11D0FB6F894DEBF6D
:0C09D0000FBECDBFED010895F894FFCFDD
:0809DC002564256400487A003F
:00000001FF
